{
  "contractName": "flipstarter",
  "abi": [
    {
      "inputs": [
        {
          "internalType": "string",
          "name": "title",
          "type": "string"
        },
        {
          "internalType": "string",
          "name": "summary",
          "type": "string"
        },
        {
          "internalType": "string",
          "name": "proposal",
          "type": "string"
        },
        {
          "internalType": "uint256",
          "name": "_goal",
          "type": "uint256"
        },
        {
          "internalType": "string",
          "name": "name",
          "type": "string"
        },
        {
          "internalType": "string",
          "name": "website",
          "type": "string"
        },
        {
          "internalType": "string",
          "name": "photo",
          "type": "string"
        }
      ],
      "stateMutability": "nonpayable",
      "type": "constructor"
    },
    {
      "anonymous": false,
      "inputs": [],
      "name": "compleateCampaign",
      "type": "event"
    },
    {
      "anonymous": false,
      "inputs": [],
      "name": "updateCampaign",
      "type": "event"
    },
    {
      "anonymous": false,
      "inputs": [],
      "name": "updateTracks",
      "type": "event"
    },
    {
      "inputs": [],
      "name": "campaign",
      "outputs": [
        {
          "internalType": "string",
          "name": "title",
          "type": "string"
        },
        {
          "internalType": "string",
          "name": "summary",
          "type": "string"
        },
        {
          "internalType": "string",
          "name": "proposal",
          "type": "string"
        }
      ],
      "stateMutability": "view",
      "type": "function",
      "constant": true
    },
    {
      "inputs": [
        {
          "internalType": "address",
          "name": "",
          "type": "address"
        }
      ],
      "name": "contributors",
      "outputs": [
        {
          "internalType": "address",
          "name": "_address",
          "type": "address"
        },
        {
          "internalType": "string",
          "name": "name",
          "type": "string"
        },
        {
          "internalType": "string",
          "name": "comment",
          "type": "string"
        },
        {
          "internalType": "uint256",
          "name": "amount",
          "type": "uint256"
        },
        {
          "internalType": "bool",
          "name": "withdrawn",
          "type": "bool"
        },
        {
          "internalType": "bool",
          "name": "exists",
          "type": "bool"
        }
      ],
      "stateMutability": "view",
      "type": "function",
      "constant": true
    },
    {
      "inputs": [
        {
          "internalType": "uint256",
          "name": "",
          "type": "uint256"
        }
      ],
      "name": "contributorsKeys",
      "outputs": [
        {
          "internalType": "address",
          "name": "",
          "type": "address"
        }
      ],
      "stateMutability": "view",
      "type": "function",
      "constant": true
    },
    {
      "inputs": [],
      "name": "goal",
      "outputs": [
        {
          "internalType": "uint256",
          "name": "",
          "type": "uint256"
        }
      ],
      "stateMutability": "view",
      "type": "function",
      "constant": true
    },
    {
      "inputs": [],
      "name": "isEnd",
      "outputs": [
        {
          "internalType": "bool",
          "name": "",
          "type": "bool"
        }
      ],
      "stateMutability": "view",
      "type": "function",
      "constant": true
    },
    {
      "inputs": [],
      "name": "owner",
      "outputs": [
        {
          "internalType": "address",
          "name": "",
          "type": "address"
        }
      ],
      "stateMutability": "view",
      "type": "function",
      "constant": true
    },
    {
      "inputs": [
        {
          "internalType": "uint256",
          "name": "",
          "type": "uint256"
        }
      ],
      "name": "recipients",
      "outputs": [
        {
          "internalType": "address",
          "name": "_address",
          "type": "address"
        },
        {
          "internalType": "string",
          "name": "name",
          "type": "string"
        },
        {
          "internalType": "string",
          "name": "website",
          "type": "string"
        },
        {
          "internalType": "string",
          "name": "photo",
          "type": "string"
        }
      ],
      "stateMutability": "view",
      "type": "function",
      "constant": true
    },
    {
      "stateMutability": "payable",
      "type": "receive",
      "payable": true
    },
    {
      "inputs": [
        {
          "internalType": "string",
          "name": "name",
          "type": "string"
        },
        {
          "internalType": "string",
          "name": "comment",
          "type": "string"
        }
      ],
      "name": "pledge",
      "outputs": [],
      "stateMutability": "payable",
      "type": "function",
      "payable": true
    },
    {
      "inputs": [],
      "name": "cancelPledge",
      "outputs": [],
      "stateMutability": "payable",
      "type": "function",
      "payable": true
    },
    {
      "inputs": [],
      "name": "getRecipients",
      "outputs": [
        {
          "components": [
            {
              "internalType": "address",
              "name": "_address",
              "type": "address"
            },
            {
              "internalType": "string",
              "name": "name",
              "type": "string"
            },
            {
              "internalType": "string",
              "name": "website",
              "type": "string"
            },
            {
              "internalType": "string",
              "name": "photo",
              "type": "string"
            }
          ],
          "internalType": "struct flipstarter.recipientStruct[]",
          "name": "",
          "type": "tuple[]"
        }
      ],
      "stateMutability": "view",
      "type": "function",
      "constant": true
    },
    {
      "inputs": [
        {
          "internalType": "address",
          "name": "_address",
          "type": "address"
        }
      ],
      "name": "getContributor",
      "outputs": [
        {
          "components": [
            {
              "internalType": "address",
              "name": "_address",
              "type": "address"
            },
            {
              "internalType": "string",
              "name": "name",
              "type": "string"
            },
            {
              "internalType": "string",
              "name": "comment",
              "type": "string"
            },
            {
              "internalType": "uint256",
              "name": "amount",
              "type": "uint256"
            },
            {
              "internalType": "bool",
              "name": "withdrawn",
              "type": "bool"
            },
            {
              "internalType": "bool",
              "name": "exists",
              "type": "bool"
            }
          ],
          "internalType": "struct flipstarter.contributor",
          "name": "",
          "type": "tuple"
        }
      ],
      "stateMutability": "view",
      "type": "function",
      "constant": true
    },
    {
      "inputs": [],
      "name": "getContributor",
      "outputs": [
        {
          "components": [
            {
              "internalType": "address",
              "name": "_address",
              "type": "address"
            },
            {
              "internalType": "string",
              "name": "name",
              "type": "string"
            },
            {
              "internalType": "string",
              "name": "comment",
              "type": "string"
            },
            {
              "internalType": "uint256",
              "name": "amount",
              "type": "uint256"
            },
            {
              "internalType": "bool",
              "name": "withdrawn",
              "type": "bool"
            },
            {
              "internalType": "bool",
              "name": "exists",
              "type": "bool"
            }
          ],
          "internalType": "struct flipstarter.contributor",
          "name": "",
          "type": "tuple"
        }
      ],
      "stateMutability": "view",
      "type": "function",
      "constant": true
    },
    {
      "inputs": [],
      "name": "getContributorsKeys",
      "outputs": [
        {
          "internalType": "address[]",
          "name": "",
          "type": "address[]"
        }
      ],
      "stateMutability": "view",
      "type": "function",
      "constant": true
    },
    {
      "inputs": [],
      "name": "getAmount",
      "outputs": [
        {
          "internalType": "uint256",
          "name": "",
          "type": "uint256"
        }
      ],
      "stateMutability": "view",
      "type": "function",
      "constant": true
    },
    {
      "inputs": [
        {
          "internalType": "string",
          "name": "track",
          "type": "string"
        }
      ],
      "name": "addTrack",
      "outputs": [],
      "stateMutability": "nonpayable",
      "type": "function"
    },
    {
      "inputs": [
        {
          "internalType": "uint256",
          "name": "index",
          "type": "uint256"
        },
        {
          "internalType": "bool",
          "name": "done",
          "type": "bool"
        }
      ],
      "name": "switchTrack",
      "outputs": [],
      "stateMutability": "nonpayable",
      "type": "function"
    },
    {
      "inputs": [
        {
          "internalType": "uint256",
          "name": "index",
          "type": "uint256"
        }
      ],
      "name": "removeTrack",
      "outputs": [],
      "stateMutability": "nonpayable",
      "type": "function"
    },
    {
      "inputs": [
        {
          "internalType": "uint256",
          "name": "index",
          "type": "uint256"
        }
      ],
      "name": "getTrack",
      "outputs": [
        {
          "components": [
            {
              "internalType": "string",
              "name": "title",
              "type": "string"
            },
            {
              "internalType": "bool",
              "name": "done",
              "type": "bool"
            }
          ],
          "internalType": "struct flipstarter.trackStruct",
          "name": "",
          "type": "tuple"
        }
      ],
      "stateMutability": "view",
      "type": "function",
      "constant": true
    },
    {
      "inputs": [],
      "name": "getTracksArray",
      "outputs": [
        {
          "components": [
            {
              "internalType": "string",
              "name": "title",
              "type": "string"
            },
            {
              "internalType": "bool",
              "name": "done",
              "type": "bool"
            }
          ],
          "internalType": "struct flipstarter.trackStruct[]",
          "name": "",
          "type": "tuple[]"
        }
      ],
      "stateMutability": "view",
      "type": "function",
      "constant": true
    },
    {
      "inputs": [],
      "name": "withdraw",
      "outputs": [],
      "stateMutability": "payable",
      "type": "function",
      "payable": true
    },
    {
      "inputs": [],
      "name": "forse",
      "outputs": [],
      "stateMutability": "payable",
      "type": "function",
      "payable": true
    },
    {
      "inputs": [],
      "name": "balance",
      "outputs": [
        {
          "internalType": "uint256",
          "name": "",
          "type": "uint256"
        }
      ],
      "stateMutability": "view",
      "type": "function",
      "constant": true
    }
  ],
  "bytecode": "0x60806040526000600360146101000a81548160ff0219169083151502179055503480156200002c57600080fd5b506040516200382d3803806200382d833981810160405281019062000052919062000371565b33600360006101000a81548173ffffffffffffffffffffffffffffffffffffffff021916908373ffffffffffffffffffffffffffffffffffffffff160217905550600560405180608001604052803373ffffffffffffffffffffffffffffffffffffffff16815260200185815260200184815260200183815250908060018154018082558091505060019003906000526020600020906004020160009091909190915060008201518160000160006101000a81548173ffffffffffffffffffffffffffffffffffffffff021916908373ffffffffffffffffffffffffffffffffffffffff16021790555060208201518160010190805190602001906200015a9291906200022c565b506040820151816002019080519060200190620001799291906200022c565b506060820151816003019080519060200190620001989291906200022c565b50505060405180606001604052808881526020018781526020018681525060066000820151816000019080519060200190620001d69291906200022c565b506020820151816001019080519060200190620001f59291906200022c565b506040820151816002019080519060200190620002149291906200022c565b50905050836004819055505050505050505062000686565b8280546200023a906200057d565b90600052602060002090601f0160209004810192826200025e5760008555620002aa565b82601f106200027957805160ff1916838001178555620002aa565b82800160010185558215620002aa579182015b82811115620002a95782518255916020019190600101906200028c565b5b509050620002b99190620002bd565b5090565b5b80821115620002d8576000816000905550600101620002be565b5090565b6000620002f3620002ed8462000507565b620004de565b9050828152602081018484840111156200031257620003116200064c565b5b6200031f84828562000547565b509392505050565b600082601f8301126200033f576200033e62000647565b5b815162000351848260208601620002dc565b91505092915050565b6000815190506200036b816200066c565b92915050565b600080600080600080600060e0888a03121562000393576200039262000656565b5b600088015167ffffffffffffffff811115620003b457620003b362000651565b5b620003c28a828b0162000327565b975050602088015167ffffffffffffffff811115620003e657620003e562000651565b5b620003f48a828b0162000327565b965050604088015167ffffffffffffffff81111562000418576200041762000651565b5b620004268a828b0162000327565b9550506060620004398a828b016200035a565b945050608088015167ffffffffffffffff8111156200045d576200045c62000651565b5b6200046b8a828b0162000327565b93505060a088015167ffffffffffffffff8111156200048f576200048e62000651565b5b6200049d8a828b0162000327565b92505060c088015167ffffffffffffffff811115620004c157620004c062000651565b5b620004cf8a828b0162000327565b91505092959891949750929550565b6000620004ea620004fd565b9050620004f88282620005b3565b919050565b6000604051905090565b600067ffffffffffffffff82111562000525576200052462000618565b5b62000530826200065b565b9050602081019050919050565b6000819050919050565b60005b83811015620005675780820151818401526020810190506200054a565b8381111562000577576000848401525b50505050565b600060028204905060018216806200059657607f821691505b60208210811415620005ad57620005ac620005e9565b5b50919050565b620005be826200065b565b810181811067ffffffffffffffff82111715620005e057620005df62000618565b5b80604052505050565b7f4e487b7100000000000000000000000000000000000000000000000000000000600052602260045260246000fd5b7f4e487b7100000000000000000000000000000000000000000000000000000000600052604160045260246000fd5b600080fd5b600080fd5b600080fd5b600080fd5b6000601f19601f8301169050919050565b62000677816200053d565b81146200068357600080fd5b50565b61319780620006966000396000f3fe6080604052600436106101395760003560e01c806394069f9a116100ab578063d519a9bc1161006f578063d519a9bc14610442578063d78d610b1461046d578063ebbb707114610498578063ed0aad4d146104c1578063f0499796146104ea578063fdb7e77f146105155761018e565b806394069f9a14610379578063a93d79e714610383578063b69ef8a8146103ac578063d1bc76a1146103d7578063d321fe29146104175761018e565b806340193883116100fd578063401938831461025157806344a2d0d21461027c578063629058ca146102b9578063778f8fc1146102f6578063811e539c146103215780638da5cb5b1461034e5761018e565b80631f6d49421461019357806328c418cf146101d55780632fc6e8b7146101df5780633ccfd60b1461020a5780633d8270f5146102145761018e565b3661018e5761018c6040518060400160405280600981526020017f616e6f6e796d6f7573000000000000000000000000000000000000000000000081525060405180602001604052806000815250610531565b005b600080fd5b34801561019f57600080fd5b506101ba60048036038101906101b59190612330565b610a9d565b6040516101cc969594939291906129e7565b60405180910390f35b6101dd610c23565b005b3480156101eb57600080fd5b506101f4610eec565b6040516102019190612abc565b60405180910390f35b610212610eff565b005b34801561022057600080fd5b5061023b60048036038101906102369190612330565b6110b3565b6040516102489190612c23565b60405180910390f35b34801561025d57600080fd5b5061026661130f565b6040516102739190612c67565b60405180910390f35b34801561028857600080fd5b506102a3600480360381019061029e919061241e565b611315565b6040516102b09190612972565b60405180910390f35b3480156102c557600080fd5b506102e060048036038101906102db919061241e565b611354565b6040516102ed9190612c45565b60405180910390f35b34801561030257600080fd5b5061030b61143d565b6040516103189190612a56565b60405180910390f35b34801561032d57600080fd5b506103366114cb565b60405161034593929190612ad7565b60405180910390f35b34801561035a57600080fd5b5061036361167b565b6040516103709190612972565b60405180910390f35b6103816116a1565b005b34801561038f57600080fd5b506103aa60048036038101906103a5919061241e565b6117e0565b005b3480156103b857600080fd5b506103c16118e8565b6040516103ce9190612c67565b60405180910390f35b3480156103e357600080fd5b506103fe60048036038101906103f9919061241e565b6118f0565b60405161040e949392919061298d565b60405180910390f35b34801561042357600080fd5b5061042c611ae8565b6040516104399190612c67565b60405180910390f35b34801561044e57600080fd5b50610457611b10565b6040516104649190612a9a565b60405180910390f35b34801561047957600080fd5b50610482611c1c565b60405161048f9190612a78565b60405180910390f35b3480156104a457600080fd5b506104bf60048036038101906104ba919061244b565b611e87565b005b3480156104cd57600080fd5b506104e860048036038101906104e3919061235d565b611f96565b005b3480156104f657600080fd5b506104ff61211c565b60405161050c9190612c23565b60405180910390f35b61052f600480360381019061052a91906123a6565b610531565b005b6000349050600360149054906101000a900460ff1615610586576040517f08c379a000000000000000000000000000000000000000000000000000000000815260040161057d90612b83565b60405180910390fd5b60008111806105e057506000803373ffffffffffffffffffffffffffffffffffffffff1673ffffffffffffffffffffffffffffffffffffffff16815260200190815260200160002060040160019054906101000a900460ff165b61061f576040517f08c379a000000000000000000000000000000000000000000000000000000000815260040161061690612ba3565b60405180910390fd5b600083511415610664576040517f08c379a000000000000000000000000000000000000000000000000000000000815260040161065b90612b43565b60405180910390fd5b6004544711156106a9576040517f08c379a00000000000000000000000000000000000000000000000000000000081526004016106a090612b23565b60405180910390fd5b6004544714156106cf576001600360146101000a81548160ff0219169083151502179055505b6000803373ffffffffffffffffffffffffffffffffffffffff1673ffffffffffffffffffffffffffffffffffffffff16815260200190815260200160002060040160019054906101000a900460ff16156108b357826000803373ffffffffffffffffffffffffffffffffffffffff1673ffffffffffffffffffffffffffffffffffffffff1681526020019081526020016000206001019080519060200190610778929190612132565b50816000803373ffffffffffffffffffffffffffffffffffffffff1673ffffffffffffffffffffffffffffffffffffffff16815260200190815260200160002060020190805190602001906107ce929190612132565b50806000803373ffffffffffffffffffffffffffffffffffffffff1673ffffffffffffffffffffffffffffffffffffffff16815260200190815260200160002060030160008282546108209190612db0565b9250508190555060008060003373ffffffffffffffffffffffffffffffffffffffff1673ffffffffffffffffffffffffffffffffffffffff16815260200190815260200160002060040160006101000a81548160ff0219169083151502179055507f5085f5a289b5e1f86ecda4e7a6592dc3e91c1e2217eff61e549633752d73518f60405160405180910390a150610a99565b6001339080600181540180825580915050600190039060005260206000200160009091909190916101000a81548173ffffffffffffffffffffffffffffffffffffffff021916908373ffffffffffffffffffffffffffffffffffffffff1602179055506040518060c001604052803373ffffffffffffffffffffffffffffffffffffffff168152602001848152602001838152602001828152602001600015158152602001600115158152506000803373ffffffffffffffffffffffffffffffffffffffff1673ffffffffffffffffffffffffffffffffffffffff16815260200190815260200160002060008201518160000160006101000a81548173ffffffffffffffffffffffffffffffffffffffff021916908373ffffffffffffffffffffffffffffffffffffffff1602179055506020820151816001019080519060200190610a00929190612132565b506040820151816002019080519060200190610a1d929190612132565b506060820151816003015560808201518160040160006101000a81548160ff02191690831515021790555060a08201518160040160016101000a81548160ff0219169083151502179055509050507f5085f5a289b5e1f86ecda4e7a6592dc3e91c1e2217eff61e549633752d73518f60405160405180910390a1505b5050565b60006020528060005260406000206000915090508060000160009054906101000a900473ffffffffffffffffffffffffffffffffffffffff1690806001018054610ae690612e90565b80601f0160208091040260200160405190810160405280929190818152602001828054610b1290612e90565b8015610b5f5780601f10610b3457610100808354040283529160200191610b5f565b820191906000526020600020905b815481529060010190602001808311610b4257829003601f168201915b505050505090806002018054610b7490612e90565b80601f0160208091040260200160405190810160405280929190818152602001828054610ba090612e90565b8015610bed5780601f10610bc257610100808354040283529160200191610bed565b820191906000526020600020905b815481529060010190602001808311610bd057829003601f168201915b5050505050908060030154908060040160009054906101000a900460ff16908060040160019054906101000a900460ff16905086565b600360149054906101000a900460ff1615610c73576040517f08c379a0000000000000000000000000000000000000000000000000000000008152600401610c6a90612b83565b60405180910390fd5b6000803373ffffffffffffffffffffffffffffffffffffffff1673ffffffffffffffffffffffffffffffffffffffff16815260200190815260200160002060040160019054906101000a900460ff16610ccb57600080fd5b3373ffffffffffffffffffffffffffffffffffffffff166108fc6000803373ffffffffffffffffffffffffffffffffffffffff1673ffffffffffffffffffffffffffffffffffffffff168152602001908152602001600020600301549081150290604051600060405180830381858888f19350505050158015610d52573d6000803e3d6000fd5b5060008060003373ffffffffffffffffffffffffffffffffffffffff1673ffffffffffffffffffffffffffffffffffffffff16815260200190815260200160002060030181905550604051806020016040528060008152506000803373ffffffffffffffffffffffffffffffffffffffff1673ffffffffffffffffffffffffffffffffffffffff1681526020019081526020016000206001019080519060200190610dfe929190612132565b50604051806020016040528060008152506000803373ffffffffffffffffffffffffffffffffffffffff1673ffffffffffffffffffffffffffffffffffffffff1681526020019081526020016000206002019080519060200190610e63929190612132565b5060016000803373ffffffffffffffffffffffffffffffffffffffff1673ffffffffffffffffffffffffffffffffffffffff16815260200190815260200160002060040160006101000a81548160ff0219169083151502179055507f5085f5a289b5e1f86ecda4e7a6592dc3e91c1e2217eff61e549633752d73518f60405160405180910390a1565b600360149054906101000a900460ff1681565b600360009054906101000a900473ffffffffffffffffffffffffffffffffffffffff1673ffffffffffffffffffffffffffffffffffffffff163373ffffffffffffffffffffffffffffffffffffffff1614610f8f576040517f08c379a0000000000000000000000000000000000000000000000000000000008152600401610f8690612b63565b60405180910390fd5b600454471415610fb5576001600360146101000a81548160ff0219169083151502179055505b6000471415610ff9576040517f08c379a0000000000000000000000000000000000000000000000000000000008152600401610ff090612c03565b60405180910390fd5b600360149054906101000a900460ff16611048576040517f08c379a000000000000000000000000000000000000000000000000000000000815260040161103f90612bc3565b60405180910390fd5b600360009054906101000a900473ffffffffffffffffffffffffffffffffffffffff1673ffffffffffffffffffffffffffffffffffffffff166108fc479081150290604051600060405180830381858888f193505050501580156110b0573d6000803e3d6000fd5b50565b6110bb6121b8565b60008060008473ffffffffffffffffffffffffffffffffffffffff1673ffffffffffffffffffffffffffffffffffffffff1681526020019081526020016000206040518060c00160405290816000820160009054906101000a900473ffffffffffffffffffffffffffffffffffffffff1673ffffffffffffffffffffffffffffffffffffffff1673ffffffffffffffffffffffffffffffffffffffff16815260200160018201805461116c90612e90565b80601f016020809104026020016040519081016040528092919081815260200182805461119890612e90565b80156111e55780601f106111ba576101008083540402835291602001916111e5565b820191906000526020600020905b8154815290600101906020018083116111c857829003601f168201915b505050505081526020016002820180546111fe90612e90565b80601f016020809104026020016040519081016040528092919081815260200182805461122a90612e90565b80156112775780601f1061124c57610100808354040283529160200191611277565b820191906000526020600020905b81548152906001019060200180831161125a57829003601f168201915b50505050508152602001600382015481526020016004820160009054906101000a900460ff161515151581526020016004820160019054906101000a900460ff16151515158152505090508060a00151611306576040517f08c379a00000000000000000000000000000000000000000000000000000000081526004016112fd90612be3565b60405180910390fd5b80915050919050565b60045481565b6001818154811061132557600080fd5b906000526020600020016000915054906101000a900473ffffffffffffffffffffffffffffffffffffffff1681565b61135c612208565b600282815481106113705761136f612f51565b5b906000526020600020906002020160405180604001604052908160008201805461139990612e90565b80601f01602080910402602001604051908101604052809291908181526020018280546113c590612e90565b80156114125780601f106113e757610100808354040283529160200191611412565b820191906000526020600020905b8154815290600101906020018083116113f557829003601f168201915b505050505081526020016001820160009054906101000a900460ff1615151515815250509050919050565b606060018054806020026020016040519081016040528092919081815260200182805480156114c157602002820191906000526020600020905b8160009054906101000a900473ffffffffffffffffffffffffffffffffffffffff1673ffffffffffffffffffffffffffffffffffffffff1681526020019060010190808311611477575b5050505050905090565b60068060000180546114dc90612e90565b80601f016020809104026020016040519081016040528092919081815260200182805461150890612e90565b80156115555780601f1061152a57610100808354040283529160200191611555565b820191906000526020600020905b81548152906001019060200180831161153857829003601f168201915b50505050509080600101805461156a90612e90565b80601f016020809104026020016040519081016040528092919081815260200182805461159690612e90565b80156115e35780601f106115b8576101008083540402835291602001916115e3565b820191906000526020600020905b8154815290600101906020018083116115c657829003601f168201915b5050505050908060020180546115f890612e90565b80601f016020809104026020016040519081016040528092919081815260200182805461162490612e90565b80156116715780601f1061164657610100808354040283529160200191611671565b820191906000526020600020905b81548152906001019060200180831161165457829003601f168201915b5050505050905083565b600360009054906101000a900473ffffffffffffffffffffffffffffffffffffffff1681565b600360009054906101000a900473ffffffffffffffffffffffffffffffffffffffff1673ffffffffffffffffffffffffffffffffffffffff163373ffffffffffffffffffffffffffffffffffffffff1614611731576040517f08c379a000000000000000000000000000000000000000000000000000000000815260040161172890612b63565b60405180910390fd5b6000471415611775576040517f08c379a000000000000000000000000000000000000000000000000000000000815260040161176c90612c03565b60405180910390fd5b600360009054906101000a900473ffffffffffffffffffffffffffffffffffffffff1673ffffffffffffffffffffffffffffffffffffffff166108fc479081150290604051600060405180830381858888f193505050501580156117dd573d6000803e3d6000fd5b50565b600360009054906101000a900473ffffffffffffffffffffffffffffffffffffffff1673ffffffffffffffffffffffffffffffffffffffff163373ffffffffffffffffffffffffffffffffffffffff1614611870576040517f08c379a000000000000000000000000000000000000000000000000000000000815260040161186790612b63565b60405180910390fd5b6002818154811061188457611883612f51565b5b9060005260206000209060020201600080820160006118a39190612224565b6001820160006101000a81549060ff021916905550507fb431679f27cae16670f626e1ba7a1e52ce48ed5b68dbb8009f55b821ac2d73c260405160405180910390a150565b600047905090565b6005818154811061190057600080fd5b90600052602060002090600402016000915090508060000160009054906101000a900473ffffffffffffffffffffffffffffffffffffffff169080600101805461194990612e90565b80601f016020809104026020016040519081016040528092919081815260200182805461197590612e90565b80156119c25780601f10611997576101008083540402835291602001916119c2565b820191906000526020600020905b8154815290600101906020018083116119a557829003601f168201915b5050505050908060020180546119d790612e90565b80601f0160208091040260200160405190810160405280929190818152602001828054611a0390612e90565b8015611a505780601f10611a2557610100808354040283529160200191611a50565b820191906000526020600020905b815481529060010190602001808311611a3357829003601f168201915b505050505090806003018054611a6590612e90565b80601f0160208091040260200160405190810160405280929190818152602001828054611a9190612e90565b8015611ade5780601f10611ab357610100808354040283529160200191611ade565b820191906000526020600020905b815481529060010190602001808311611ac157829003601f168201915b5050505050905084565b6000600360149054906101000a900460ff1615611b09576004549050611b0d565b4790505b90565b60606002805480602002602001604051908101604052809291908181526020016000905b82821015611c135783829060005260206000209060020201604051806040016040529081600082018054611b6790612e90565b80601f0160208091040260200160405190810160405280929190818152602001828054611b9390612e90565b8015611be05780601f10611bb557610100808354040283529160200191611be0565b820191906000526020600020905b815481529060010190602001808311611bc357829003601f168201915b505050505081526020016001820160009054906101000a900460ff16151515158152505081526020019060010190611b34565b50505050905090565b60606005805480602002602001604051908101604052809291908181526020016000905b82821015611e7e57838290600052602060002090600402016040518060800160405290816000820160009054906101000a900473ffffffffffffffffffffffffffffffffffffffff1673ffffffffffffffffffffffffffffffffffffffff1673ffffffffffffffffffffffffffffffffffffffff168152602001600182018054611cc990612e90565b80601f0160208091040260200160405190810160405280929190818152602001828054611cf590612e90565b8015611d425780601f10611d1757610100808354040283529160200191611d42565b820191906000526020600020905b815481529060010190602001808311611d2557829003601f168201915b50505050508152602001600282018054611d5b90612e90565b80601f0160208091040260200160405190810160405280929190818152602001828054611d8790612e90565b8015611dd45780601f10611da957610100808354040283529160200191611dd4565b820191906000526020600020905b815481529060010190602001808311611db757829003601f168201915b50505050508152602001600382018054611ded90612e90565b80601f0160208091040260200160405190810160405280929190818152602001828054611e1990612e90565b8015611e665780601f10611e3b57610100808354040283529160200191611e66565b820191906000526020600020905b815481529060010190602001808311611e4957829003601f168201915b50505050508152505081526020019060010190611c40565b50505050905090565b600360009054906101000a900473ffffffffffffffffffffffffffffffffffffffff1673ffffffffffffffffffffffffffffffffffffffff163373ffffffffffffffffffffffffffffffffffffffff1614611f17576040517f08c379a0000000000000000000000000000000000000000000000000000000008152600401611f0e90612b63565b60405180910390fd5b600280549050821115611f2957600080fd5b8060028381548110611f3e57611f3d612f51565b5b906000526020600020906002020160010160006101000a81548160ff0219169083151502179055507fb431679f27cae16670f626e1ba7a1e52ce48ed5b68dbb8009f55b821ac2d73c260405160405180910390a15050565b600360009054906101000a900473ffffffffffffffffffffffffffffffffffffffff1673ffffffffffffffffffffffffffffffffffffffff163373ffffffffffffffffffffffffffffffffffffffff1614612026576040517f08c379a000000000000000000000000000000000000000000000000000000000815260040161201d90612b63565b60405180910390fd5b60008151141561206b576040517f08c379a000000000000000000000000000000000000000000000000000000000815260040161206290612b43565b60405180910390fd5b6002604051806040016040528083815260200160001515815250908060018154018082558091505060019003906000526020600020906002020160009091909190915060008201518160000190805190602001906120ca929190612132565b5060208201518160010160006101000a81548160ff02191690831515021790555050507fb431679f27cae16670f626e1ba7a1e52ce48ed5b68dbb8009f55b821ac2d73c260405160405180910390a150565b6121246121b8565b61212d336110b3565b905090565b82805461213e90612e90565b90600052602060002090601f01602090048101928261216057600085556121a7565b82601f1061217957805160ff19168380011785556121a7565b828001600101855582156121a7579182015b828111156121a657825182559160200191906001019061218b565b5b5090506121b49190612264565b5090565b6040518060c00160405280600073ffffffffffffffffffffffffffffffffffffffff1681526020016060815260200160608152602001600081526020016000151581526020016000151581525090565b6040518060400160405280606081526020016000151581525090565b50805461223090612e90565b6000825580601f106122425750612261565b601f0160209004906000526020600020908101906122609190612264565b5b50565b5b8082111561227d576000816000905550600101612265565b5090565b600061229461228f84612ca7565b612c82565b9050828152602081018484840111156122b0576122af612fb4565b5b6122bb848285612e4e565b509392505050565b6000813590506122d28161311c565b92915050565b6000813590506122e781613133565b92915050565b600082601f83011261230257612301612faf565b5b8135612312848260208601612281565b91505092915050565b60008135905061232a8161314a565b92915050565b60006020828403121561234657612345612fbe565b5b6000612354848285016122c3565b91505092915050565b60006020828403121561237357612372612fbe565b5b600082013567ffffffffffffffff81111561239157612390612fb9565b5b61239d848285016122ed565b91505092915050565b600080604083850312156123bd576123bc612fbe565b5b600083013567ffffffffffffffff8111156123db576123da612fb9565b5b6123e7858286016122ed565b925050602083013567ffffffffffffffff81111561240857612407612fb9565b5b612414858286016122ed565b9150509250929050565b60006020828403121561243457612433612fbe565b5b60006124428482850161231b565b91505092915050565b6000806040838503121561246257612461612fbe565b5b60006124708582860161231b565b9250506020612481858286016122d8565b9150509250929050565b600061249783836124cb565b60208301905092915050565b60006124af8383612869565b905092915050565b60006124c383836128da565b905092915050565b6124d481612e06565b82525050565b6124e381612e06565b82525050565b60006124f482612d08565b6124fe8185612d5b565b935061250983612cd8565b8060005b8381101561253a578151612521888261248b565b975061252c83612d34565b92505060018101905061250d565b5085935050505092915050565b600061255282612d13565b61255c8185612d6c565b93508360208202850161256e85612ce8565b8060005b858110156125aa578484038952815161258b85826124a3565b945061259683612d41565b925060208a01995050600181019050612572565b50829750879550505050505092915050565b60006125c782612d1e565b6125d18185612d7d565b9350836020820285016125e385612cf8565b8060005b8581101561261f578484038952815161260085826124b7565b945061260b83612d4e565b925060208a019950506001810190506125e7565b50829750879550505050505092915050565b61263a81612e18565b82525050565b61264981612e18565b82525050565b600061265a82612d29565b6126648185612d8e565b9350612674818560208601612e5d565b61267d81612fc3565b840191505092915050565b600061269382612d29565b61269d8185612d9f565b93506126ad818560208601612e5d565b6126b681612fc3565b840191505092915050565b60006126ce601883612d9f565b91506126d982612fd4565b602082019050919050565b60006126f1601683612d9f565b91506126fc82612ffd565b602082019050919050565b6000612714601383612d9f565b915061271f82613026565b602082019050919050565b6000612737601283612d9f565b91506127428261304f565b602082019050919050565b600061275a601c83612d9f565b915061276582613078565b602082019050919050565b600061277d601083612d9f565b9150612788826130a1565b602082019050919050565b60006127a0602083612d9f565b91506127ab826130ca565b602082019050919050565b60006127c3601383612d9f565b91506127ce826130f3565b602082019050919050565b600060c0830160008301516127f160008601826124cb565b5060208301518482036020860152612809828261264f565b91505060408301518482036040860152612823828261264f565b91505060608301516128386060860182612954565b50608083015161284b6080860182612631565b5060a083015161285e60a0860182612631565b508091505092915050565b600060808301600083015161288160008601826124cb565b5060208301518482036020860152612899828261264f565b915050604083015184820360408601526128b3828261264f565b915050606083015184820360608601526128cd828261264f565b9150508091505092915050565b600060408301600083015184820360008601526128f7828261264f565b915050602083015161290c6020860182612631565b508091505092915050565b60006040830160008301518482036000860152612934828261264f565b91505060208301516129496020860182612631565b508091505092915050565b61295d81612e44565b82525050565b61296c81612e44565b82525050565b600060208201905061298760008301846124da565b92915050565b60006080820190506129a260008301876124da565b81810360208301526129b48186612688565b905081810360408301526129c88185612688565b905081810360608301526129dc8184612688565b905095945050505050565b600060c0820190506129fc60008301896124da565b8181036020830152612a0e8188612688565b90508181036040830152612a228187612688565b9050612a316060830186612963565b612a3e6080830185612640565b612a4b60a0830184612640565b979650505050505050565b60006020820190508181036000830152612a7081846124e9565b905092915050565b60006020820190508181036000830152612a928184612547565b905092915050565b60006020820190508181036000830152612ab481846125bc565b905092915050565b6000602082019050612ad16000830184612640565b92915050565b60006060820190508181036000830152612af18186612688565b90508181036020830152612b058185612688565b90508181036040830152612b198184612688565b9050949350505050565b60006020820190508181036000830152612b3c816126c1565b9050919050565b60006020820190508181036000830152612b5c816126e4565b9050919050565b60006020820190508181036000830152612b7c81612707565b9050919050565b60006020820190508181036000830152612b9c8161272a565b9050919050565b60006020820190508181036000830152612bbc8161274d565b9050919050565b60006020820190508181036000830152612bdc81612770565b9050919050565b60006020820190508181036000830152612bfc81612793565b9050919050565b60006020820190508181036000830152612c1c816127b6565b9050919050565b60006020820190508181036000830152612c3d81846127d9565b905092915050565b60006020820190508181036000830152612c5f8184612917565b905092915050565b6000602082019050612c7c6000830184612963565b92915050565b6000612c8c612c9d565b9050612c988282612ec2565b919050565b6000604051905090565b600067ffffffffffffffff821115612cc257612cc1612f80565b5b612ccb82612fc3565b9050602081019050919050565b6000819050602082019050919050565b6000819050602082019050919050565b6000819050602082019050919050565b600081519050919050565b600081519050919050565b600081519050919050565b600081519050919050565b6000602082019050919050565b6000602082019050919050565b6000602082019050919050565b600082825260208201905092915050565b600082825260208201905092915050565b600082825260208201905092915050565b600082825260208201905092915050565b600082825260208201905092915050565b6000612dbb82612e44565b9150612dc683612e44565b9250827fffffffffffffffffffffffffffffffffffffffffffffffffffffffffffffffff03821115612dfb57612dfa612ef3565b5b828201905092915050565b6000612e1182612e24565b9050919050565b60008115159050919050565b600073ffffffffffffffffffffffffffffffffffffffff82169050919050565b6000819050919050565b82818337600083830152505050565b60005b83811015612e7b578082015181840152602081019050612e60565b83811115612e8a576000848401525b50505050565b60006002820490506001821680612ea857607f821691505b60208210811415612ebc57612ebb612f22565b5b50919050565b612ecb82612fc3565b810181811067ffffffffffffffff82111715612eea57612ee9612f80565b5b80604052505050565b7f4e487b7100000000000000000000000000000000000000000000000000000000600052601160045260246000fd5b7f4e487b7100000000000000000000000000000000000000000000000000000000600052602260045260246000fd5b7f4e487b7100000000000000000000000000000000000000000000000000000000600052603260045260246000fd5b7f4e487b7100000000000000000000000000000000000000000000000000000000600052604160045260246000fd5b600080fd5b600080fd5b600080fd5b600080fd5b6000601f19601f8301169050919050565b7f5468652076616c7565206d6f7265207468656e20676f616c0000000000000000600082015250565b7f4e616d65206d757374206265206e6f7420656d70747900000000000000000000600082015250565b7f43616c6c6572206973206e6f74206f776e657200000000000000000000000000600082015250565b7f63616d706169676e2077617320656e6465640000000000000000000000000000600082015250565b7f56616c7565206d757374206265206d6f7265207468656e207a65726f00000000600082015250565b7f63616d706169676e206e6f7420656e6400000000000000000000000000000000600082015250565b7f54686973206164647265737320617265206e6f7420636f6e7472696275746f72600082015250565b7f4e6f206d6f6e7920696e20636f6e747261637400000000000000000000000000600082015250565b61312581612e06565b811461313057600080fd5b50565b61313c81612e18565b811461314757600080fd5b50565b61315381612e44565b811461315e57600080fd5b5056fea2646970667358221220b577decf833e77e31c955d27b066851bffba4345bf5a203953c0a242d0d0041264736f6c63430008070033",
  "immutableReferences": {},
  "source": "// SPDX-License-Identifier: GPL-3.0\npragma solidity 0.8.7;\n\ncontract flipstarter {\n    // stracts\n    struct recipientStruct {\n        address _address;\n        string name;\n        string website;\n        string photo;\n        // uint256 amount; TODO: support more than one recipient\n        // bool exists; TODO: support more than one recipient\n    }\n\n    struct campaignStruct {\n        string title;\n        string summary;\n        string proposal;\n    }\n\n    struct trackStruct {\n        string title;\n        bool done;\n    }\n\n    struct contributor {\n        address _address;\n        string name;\n        string comment;\n        uint256 amount;\n        bool withdrawn;\n        bool exists;\n    }\n\n    // contributors\n    mapping(address => contributor) public contributors;\n    address[] public contributorsKeys;\n\n    // events of contract\n    event updateCampaign();\n    event compleateCampaign();\n    event updateTracks();\n\n    //\n    trackStruct[] tracks;\n\n    address public owner;\n    bool public isEnd = false;\n    uint256 public goal;\n\n    recipientStruct[] public recipients;\n    campaignStruct public campaign;\n\n    constructor(\n        //\n        string memory title,\n        string memory summary,\n        string memory proposal,\n        uint256 _goal,\n        //\n        string memory name,\n        string memory website,\n        string memory photo\n    ) {\n        owner = msg.sender;\n        recipients.push(\n            recipientStruct(\n                msg.sender, // first recipient in creator of camp\n                name,\n                website,\n                photo\n            )\n        );\n        campaign = campaignStruct(title, summary, proposal);\n        goal = _goal;\n    }\n\n    modifier isOwner() {\n        require(msg.sender == owner, \"Caller is not owner\");\n        _;\n    }\n\n    function pledge(string memory name, string memory comment) public payable {\n        uint256 value = msg.value;\n        require(!isEnd, \"campaign was ended\");\n        require(\n            value > 0 || contributors[msg.sender].exists,\n            \"Value must be more then zero\"\n        );\n        require(bytes(name).length != 0, \"Name must be not empty\");\n        require(address(this).balance <= goal, \"The value more then goal\");\n\n        if (address(this).balance == goal) {\n            isEnd = true;\n        }\n\n        if (contributors[msg.sender].exists) {\n            contributors[msg.sender].name = name;\n            contributors[msg.sender].comment = comment;\n            contributors[msg.sender].amount += value;\n            contributors[msg.sender].withdrawn = false;\n            emit updateCampaign();\n            return;\n        }\n\n        contributorsKeys.push(msg.sender);\n        contributors[msg.sender] = contributor(\n            msg.sender, // Address\n            name, // name\n            comment, // Comment\n            value, // amount\n            false, // withdrawn\n            true // exists\n        );\n        emit updateCampaign();\n    }\n\n    function cancelPledge() public payable {\n        require(!isEnd, \"campaign was ended\");\n        require(contributors[msg.sender].exists);\n\n        // return mony for pledger\n        payable(msg.sender).transfer(contributors[msg.sender].amount);\n\n        // delete from contributors\n        contributors[msg.sender].amount = 0;\n        contributors[msg.sender].name = \"\";\n        contributors[msg.sender].comment = \"\";\n        contributors[msg.sender].withdrawn = true;\n\n        //\n        emit updateCampaign();\n    }\n\n    function getRecipients() public view returns (recipientStruct[] memory) {\n        return recipients;\n    }\n\n    function getContributor(address _address)\n        public\n        view\n        returns (contributor memory)\n    {\n        contributor memory senderData = contributors[_address];\n        require(senderData.exists, \"This address are not contributor\");\n        return senderData;\n    }\n\n    function getContributor() public view returns (contributor memory) {\n        return getContributor(msg.sender);\n    }\n\n    function getContributorsKeys() public view returns (address[] memory) {\n        return contributorsKeys;\n    }\n\n    function getAmount() public view returns (uint256) {\n        if (isEnd) {\n            return goal;\n        }\n        return address(this).balance;\n    }\n\n    function addTrack(string memory track) public isOwner {\n        require(bytes(track).length != 0, \"Name must be not empty\");\n        tracks.push(trackStruct(track, false));\n        emit updateTracks();\n    }\n\n    function switchTrack(uint256 index, bool done) public isOwner {\n        require(index <= tracks.length);\n        tracks[index].done = done;\n        emit updateTracks();\n    }\n\n    function removeTrack(uint256 index) public isOwner {\n        delete tracks[index];\n        emit updateTracks();\n    }\n\n    function getTrack(uint256 index) public view returns (trackStruct memory) {\n        return tracks[index];\n    }\n\n    function getTracksArray() public view returns (trackStruct[] memory) {\n        return tracks;\n    }\n\n    function withdraw() public payable isOwner {\n        if (address(this).balance == goal) {\n            isEnd = true;\n        }\n        require(address(this).balance != 0, \"No mony in contract\");\n        require(isEnd, \"campaign not end\");\n        payable(owner).transfer(address(this).balance);\n    }\n\n    function forse() public payable isOwner {\n        require(address(this).balance != 0, \"No mony in contract\");\n        payable(owner).transfer(address(this).balance);\n    }\n\n    function balance() public view returns (uint256) {\n        return address(this).balance;\n    }\n\n    receive() external payable {\n        pledge(\"anonymous\", \"\");\n    }\n}\n",
  "sourcePath": "/home/salemkode/project/salemkode/smart flipstarter/solidity/contracts/flipstarter.sol",
  "compiler": {
    "name": "solc",
    "version": "0.8.7+commit.e28d00a7.Emscripten.clang"
  },
  "schemaVersion": "3.4.4",
  "updatedAt": "2022-02-15T14:25:26.040Z",
  "networkType": "ethereum",
  "devdoc": {
    "kind": "dev",
    "methods": {},
    "version": 1
  },
  "userdoc": {
    "kind": "user",
    "methods": {},
    "version": 1
  }
}